{
  "contractName": "ZombieAttack",
  "abi": [
    {
      "anonymous": false,
      "inputs": [
        {
          "indexed": false,
          "internalType": "uint256",
          "name": "zombieId",
          "type": "uint256"
        },
        {
          "indexed": false,
          "internalType": "string",
          "name": "name",
          "type": "string"
        },
        {
          "indexed": false,
          "internalType": "uint256",
          "name": "dna",
          "type": "uint256"
        }
      ],
      "name": "NewZombie",
      "type": "event"
    },
    {
      "anonymous": false,
      "inputs": [
        {
          "indexed": true,
          "internalType": "address",
          "name": "previousOwner",
          "type": "address"
        },
        {
          "indexed": true,
          "internalType": "address",
          "name": "newOwner",
          "type": "address"
        }
      ],
      "name": "OwnershipTransferred",
      "type": "event"
    },
    {
      "constant": false,
      "inputs": [
        {
          "internalType": "uint256",
          "name": "_zombieId",
          "type": "uint256"
        },
        {
          "internalType": "uint256",
          "name": "_newDna",
          "type": "uint256"
        }
      ],
      "name": "changeDna",
      "outputs": [],
      "payable": false,
      "stateMutability": "nonpayable",
      "type": "function"
    },
    {
      "constant": false,
      "inputs": [
        {
          "internalType": "uint256",
          "name": "_zombieId",
          "type": "uint256"
        },
        {
          "internalType": "string",
          "name": "_newName",
          "type": "string"
        }
      ],
      "name": "changeName",
      "outputs": [],
      "payable": false,
      "stateMutability": "nonpayable",
      "type": "function"
    },
    {
      "constant": false,
      "inputs": [
        {
          "internalType": "string",
          "name": "_name",
          "type": "string"
        }
      ],
      "name": "createRandomZombie",
      "outputs": [],
      "payable": false,
      "stateMutability": "nonpayable",
      "type": "function"
    },
    {
      "constant": false,
      "inputs": [
        {
          "internalType": "uint256",
          "name": "_zombieId",
          "type": "uint256"
        },
        {
          "internalType": "uint256",
          "name": "_kittyId",
          "type": "uint256"
        }
      ],
      "name": "feedOnKitty",
      "outputs": [],
      "payable": false,
      "stateMutability": "nonpayable",
      "type": "function"
    },
    {
      "constant": true,
      "inputs": [
        {
          "internalType": "address",
          "name": "_owner",
          "type": "address"
        }
      ],
      "name": "getZombiesByOwner",
      "outputs": [
        {
          "internalType": "uint256[]",
          "name": "",
          "type": "uint256[]"
        }
      ],
      "payable": false,
      "stateMutability": "view",
      "type": "function"
    },
    {
      "constant": false,
      "inputs": [
        {
          "internalType": "uint256",
          "name": "_zombieId",
          "type": "uint256"
        }
      ],
      "name": "levelUp",
      "outputs": [],
      "payable": true,
      "stateMutability": "payable",
      "type": "function"
    },
    {
      "constant": true,
      "inputs": [],
      "name": "owner",
      "outputs": [
        {
          "internalType": "address payable",
          "name": "",
          "type": "address"
        }
      ],
      "payable": false,
      "stateMutability": "view",
      "type": "function"
    },
    {
      "constant": false,
      "inputs": [
        {
          "internalType": "address",
          "name": "_address",
          "type": "address"
        }
      ],
      "name": "setKittyContractAddress",
      "outputs": [],
      "payable": false,
      "stateMutability": "nonpayable",
      "type": "function"
    },
    {
      "constant": false,
      "inputs": [
        {
          "internalType": "uint256",
          "name": "_fee",
          "type": "uint256"
        }
      ],
      "name": "setLevelUpFee",
      "outputs": [],
      "payable": false,
      "stateMutability": "nonpayable",
      "type": "function"
    },
    {
      "constant": false,
      "inputs": [
        {
          "internalType": "address payable",
          "name": "_newOwner",
          "type": "address"
        }
      ],
      "name": "transferOwnership",
      "outputs": [],
      "payable": false,
      "stateMutability": "nonpayable",
      "type": "function"
    },
    {
      "constant": false,
      "inputs": [],
      "name": "withdraw",
      "outputs": [],
      "payable": false,
      "stateMutability": "nonpayable",
      "type": "function"
    },
    {
      "constant": true,
      "inputs": [
        {
          "internalType": "uint256",
          "name": "",
          "type": "uint256"
        }
      ],
      "name": "zombieToOwner",
      "outputs": [
        {
          "internalType": "address",
          "name": "",
          "type": "address"
        }
      ],
      "payable": false,
      "stateMutability": "view",
      "type": "function"
    },
    {
      "constant": true,
      "inputs": [
        {
          "internalType": "uint256",
          "name": "",
          "type": "uint256"
        }
      ],
      "name": "zombies",
      "outputs": [
        {
          "internalType": "string",
          "name": "name",
          "type": "string"
        },
        {
          "internalType": "uint256",
          "name": "dna",
          "type": "uint256"
        },
        {
          "internalType": "uint32",
          "name": "level",
          "type": "uint32"
        },
        {
          "internalType": "uint32",
          "name": "readyTime",
          "type": "uint32"
        },
        {
          "internalType": "uint16",
          "name": "winCount",
          "type": "uint16"
        },
        {
          "internalType": "uint16",
          "name": "lossCount",
          "type": "uint16"
        }
      ],
      "payable": false,
      "stateMutability": "view",
      "type": "function"
    },
    {
      "constant": false,
      "inputs": [
        {
          "internalType": "uint256",
          "name": "_zombieId",
          "type": "uint256"
        },
        {
          "internalType": "uint256",
          "name": "_targetId",
          "type": "uint256"
        }
      ],
      "name": "attack",
      "outputs": [],
      "payable": false,
      "stateMutability": "nonpayable",
      "type": "function"
    }
  ],
  "bytecode": "0x60806040526010600155600154600a0a6002556201518060035566038d7ea4c6800060085560006009556046600a55336000806101000a81548173ffffffffffffffffffffffffffffffffffffffff021916908373ffffffffffffffffffffffffffffffffffffffff160217905550611a038061007d6000396000f3fe6080604052600436106100dd5760003560e01c80635faf28801161007f578063c39cbef111610059578063c39cbef114610541578063ccf670f8146105d1578063e1fa76381461060c578063f2fde38b14610651576100dd565b80635faf2880146103dd5780637bff0a01146104225780638da5cb5b146104ea576100dd565b80633ccfd60b116100bb5780633ccfd60b146102545780634412e1041461026b578063528b7b8f146103115780635f4623f11461038c576100dd565b80630ce90ec2146100e257806317a7f4cc146101105780632052465e14610155575b600080fd5b61010e600480360360208110156100f857600080fd5b81019080803590602001909291905050506106a2565b005b34801561011c57600080fd5b506101536004803603604081101561013357600080fd5b810190808035906020019092919080359060200190929190505050610737565b005b34801561016157600080fd5b5061018e6004803603602081101561017857600080fd5b81019080803590602001909291905050506108c2565b60405180806020018781526020018663ffffffff1663ffffffff1681526020018563ffffffff1663ffffffff1681526020018461ffff1661ffff1681526020018361ffff1661ffff168152602001828103825288818151815260200191508051906020019080838360005b838110156102145780820151818401526020810190506101f9565b50505050905090810190601f1680156102415780820380516001836020036101000a031916815260200191505b5097505050505050505060405180910390f35b34801561026057600080fd5b506102696109df565b005b34801561027757600080fd5b506102ba6004803603602081101561028e57600080fd5b81019080803573ffffffffffffffffffffffffffffffffffffffff169060200190929190505050610aa2565b6040518080602001828103825283818151815260200191508051906020019060200280838360005b838110156102fd5780820151818401526020810190506102e2565b505050509050019250505060405180910390f35b34801561031d57600080fd5b5061034a6004803603602081101561033457600080fd5b8101908080359060200190929190505050610bcf565b604051808273ffffffffffffffffffffffffffffffffffffffff1673ffffffffffffffffffffffffffffffffffffffff16815260200191505060405180910390f35b34801561039857600080fd5b506103db600480360360208110156103af57600080fd5b81019080803573ffffffffffffffffffffffffffffffffffffffff169060200190929190505050610c02565b005b3480156103e957600080fd5b506104206004803603604081101561040057600080fd5b810190808035906020019092919080359060200190929190505050610c9f565b005b34801561042e57600080fd5b506104e86004803603602081101561044557600080fd5b810190808035906020019064010000000081111561046257600080fd5b82018360208201111561047457600080fd5b8035906020019184600183028401116401000000008311171561049657600080fd5b91908080601f016020809104026020016040519081016040528093929190818152602001838380828437600081840152601f19601f820116905080830192505050505050509192919290505050610d79565b005b3480156104f657600080fd5b506104ff610da3565b604051808273ffffffffffffffffffffffffffffffffffffffff1673ffffffffffffffffffffffffffffffffffffffff16815260200191505060405180910390f35b34801561054d57600080fd5b506105cf6004803603604081101561056457600080fd5b81019080803590602001909291908035906020019064010000000081111561058b57600080fd5b82018360208201111561059d57600080fd5b803590602001918460018302840111640100000000831117156105bf57600080fd5b9091929391929390505050610dc8565b005b3480156105dd57600080fd5b5061060a600480360360208110156105f457600080fd5b8101908080359060200190929190505050610eae565b005b34801561061857600080fd5b5061064f6004803603604081101561062f57600080fd5b810190808035906020019092919080359060200190929190505050610f11565b005b34801561065d57600080fd5b506106a06004803603602081101561067457600080fd5b81019080803573ffffffffffffffffffffffffffffffffffffffff16906020019092919050505061119d565b005b60085434146106b057600080fd5b6106f86001600483815481106106c257fe5b906000526020600020906003020160020160009054906101000a900463ffffffff1663ffffffff1661120290919063ffffffff16565b6004828154811061070557fe5b906000526020600020906003020160020160006101000a81548163ffffffff021916908363ffffffff16021790555050565b6000600760009054906101000a900473ffffffffffffffffffffffffffffffffffffffff1673ffffffffffffffffffffffffffffffffffffffff1663e98b7f4d836040518263ffffffff1660e01b8152600401808281526020019150506101406040518083038186803b1580156107ad57600080fd5b505afa1580156107c1573d6000803e3d6000fd5b505050506040513d6101408110156107d857600080fd5b8101908080519060200190929190805190602001909291908051906020019092919080519060200190929190805190602001909291908051906020019092919080519060200190929190805190602001909291908051906020019092919080519060200190929190505050909192939495969798509091929394959697509091929394959650909192939495509091929394509091929350909192509091509050809150506108bd83826040518060400160405280600581526020017f6b6974747900000000000000000000000000000000000000000000000000000081525061122a565b505050565b600481815481106108cf57fe5b9060005260206000209060030201600091509050806000018054600181600116156101000203166002900480601f01602080910402602001604051908101604052809291908181526020018280546001816001161561010002031660029004801561097b5780601f106109505761010080835404028352916020019161097b565b820191906000526020600020905b81548152906001019060200180831161095e57829003601f168201915b5050505050908060010154908060020160009054906101000a900463ffffffff16908060020160049054906101000a900463ffffffff16908060020160089054906101000a900461ffff169080600201600a9054906101000a900461ffff16905086565b6000809054906101000a900473ffffffffffffffffffffffffffffffffffffffff1673ffffffffffffffffffffffffffffffffffffffff163373ffffffffffffffffffffffffffffffffffffffff1614610a3857600080fd5b6000809054906101000a900473ffffffffffffffffffffffffffffffffffffffff1673ffffffffffffffffffffffffffffffffffffffff166108fc479081150290604051600060405180830381858888f19350505050158015610a9f573d6000803e3d6000fd5b50565b606080600660008473ffffffffffffffffffffffffffffffffffffffff1673ffffffffffffffffffffffffffffffffffffffff16815260200190815260200160002054604051908082528060200260200182016040528015610b135781602001602082028038833980820191505090505b509050600080905060008090505b600480549050811015610bc4578473ffffffffffffffffffffffffffffffffffffffff166005600083815260200190815260200160002060009054906101000a900473ffffffffffffffffffffffffffffffffffffffff1673ffffffffffffffffffffffffffffffffffffffff161415610bb75780838381518110610ba257fe5b60200260200101818152505081806001019250505b8080600101915050610b21565b508192505050919050565b60056020528060005260406000206000915054906101000a900473ffffffffffffffffffffffffffffffffffffffff1681565b6000809054906101000a900473ffffffffffffffffffffffffffffffffffffffff1673ffffffffffffffffffffffffffffffffffffffff163373ffffffffffffffffffffffffffffffffffffffff1614610c5b57600080fd5b80600760006101000a81548173ffffffffffffffffffffffffffffffffffffffff021916908373ffffffffffffffffffffffffffffffffffffffff16021790555050565b6014828160048281548110610cb057fe5b906000526020600020906003020160020160009054906101000a900463ffffffff1663ffffffff161015610ce357600080fd5b836005600082815260200190815260200160002060009054906101000a900473ffffffffffffffffffffffffffffffffffffffff1673ffffffffffffffffffffffffffffffffffffffff163373ffffffffffffffffffffffffffffffffffffffff1614610d4f57600080fd5b8360048681548110610d5d57fe5b9060005260206000209060030201600101819055505050505050565b6000610d8482611391565b905060648181610d9057fe5b0681039050610d9f82826113b5565b5050565b6000809054906101000a900473ffffffffffffffffffffffffffffffffffffffff1681565b6002838160048281548110610dd957fe5b906000526020600020906003020160020160009054906101000a900463ffffffff1663ffffffff161015610e0c57600080fd5b846005600082815260200190815260200160002060009054906101000a900473ffffffffffffffffffffffffffffffffffffffff1673ffffffffffffffffffffffffffffffffffffffff163373ffffffffffffffffffffffffffffffffffffffff1614610e7857600080fd5b848460048881548110610e8757fe5b90600052602060002090600302016000019190610ea59291906118a9565b50505050505050565b6000809054906101000a900473ffffffffffffffffffffffffffffffffffffffff1673ffffffffffffffffffffffffffffffffffffffff163373ffffffffffffffffffffffffffffffffffffffff1614610f0757600080fd5b8060088190555050565b816005600082815260200190815260200160002060009054906101000a900473ffffffffffffffffffffffffffffffffffffffff1673ffffffffffffffffffffffffffffffffffffffff163373ffffffffffffffffffffffffffffffffffffffff1614610f7d57600080fd5b600060048481548110610f8c57fe5b90600052602060002090600302019050600060048481548110610fab57fe5b906000526020600020906003020190506000610fc76064611687565b9050600a5481116110fb57610ffc60018460020160089054906101000a900461ffff1661ffff1661172090919063ffffffff16565b8360020160086101000a81548161ffff021916908361ffff16021790555061104860018460020160009054906101000a900463ffffffff1663ffffffff1661120290919063ffffffff16565b8360020160006101000a81548163ffffffff021916908363ffffffff160217905550611094600183600201600a9054906101000a900461ffff1661ffff1661172090919063ffffffff16565b82600201600a6101000a81548161ffff021916908361ffff1602179055506110f68683600101546040518060400160405280600681526020017f7a6f6d626965000000000000000000000000000000000000000000000000000081525061122a565b611195565b611125600184600201600a9054906101000a900461ffff1661ffff1661172090919063ffffffff16565b83600201600a6101000a81548161ffff021916908361ffff16021790555061116d60018360020160089054906101000a900461ffff1661ffff1661172090919063ffffffff16565b8260020160086101000a81548161ffff021916908361ffff16021790555061119483611744565b5b505050505050565b6000809054906101000a900473ffffffffffffffffffffffffffffffffffffffff1673ffffffffffffffffffffffffffffffffffffffff163373ffffffffffffffffffffffffffffffffffffffff16146111f657600080fd5b6111ff8161176e565b50565b60008082840190508363ffffffff168163ffffffff16101561122057fe5b8091505092915050565b826005600082815260200190815260200160002060009054906101000a900473ffffffffffffffffffffffffffffffffffffffff1673ffffffffffffffffffffffffffffffffffffffff163373ffffffffffffffffffffffffffffffffffffffff161461129657600080fd5b6000600485815481106112a557fe5b906000526020600020906003020190506112be81611866565b6112c757600080fd5b60025484816112d257fe5b0693506000600285836001015401816112e757fe5b04905060405180807f6b6974747900000000000000000000000000000000000000000000000000000081525060050190506040518091039020848051906020012014156113415760636064828161133a57fe5b0682030190505b6113806040518060400160405280600681526020017f4e6f4e616d650000000000000000000000000000000000000000000000000000815250826113b5565b61138982611744565b505050505050565b600080828051906020012060001c905060025481816113ac57fe5b06915050919050565b6000600160046040518060c00160405280868152602001858152602001600163ffffffff168152602001600354420163ffffffff168152602001600061ffff168152602001600061ffff1681525090806001815401808255809150509060018203906000526020600020906003020160009091929091909150600082015181600001908051906020019061144a929190611929565b506020820151816001015560408201518160020160006101000a81548163ffffffff021916908363ffffffff16021790555060608201518160020160046101000a81548163ffffffff021916908363ffffffff16021790555060808201518160020160086101000a81548161ffff021916908361ffff16021790555060a082015181600201600a6101000a81548161ffff021916908361ffff1602179055505050039050336005600083815260200190815260200160002060006101000a81548173ffffffffffffffffffffffffffffffffffffffff021916908373ffffffffffffffffffffffffffffffffffffffff1602179055506115936001600660003373ffffffffffffffffffffffffffffffffffffffff1673ffffffffffffffffffffffffffffffffffffffff1681526020019081526020016000205461188d90919063ffffffff16565b600660003373ffffffffffffffffffffffffffffffffffffffff1673ffffffffffffffffffffffffffffffffffffffff168152602001908152602001600020819055507f88f026aacbbecc90c18411df4b1185fd8d9be2470f1962f192bf84a27d0704b78184846040518084815260200180602001838152602001828103825284818151815260200191508051906020019080838360005b8381101561164657808201518184015260208101905061162b565b50505050905090810190601f1680156116735780820380516001836020036101000a031916815260200191505b5094505050505060405180910390a1505050565b600061169f600160095461188d90919063ffffffff16565b600981905550814233600954604051602001808481526020018373ffffffffffffffffffffffffffffffffffffffff1673ffffffffffffffffffffffffffffffffffffffff1660601b815260140182815260200193505050506040516020818303038152906040528051906020012060001c8161171857fe5b069050919050565b60008082840190508361ffff168161ffff16101561173a57fe5b8091505092915050565b60035442018160020160046101000a81548163ffffffff021916908363ffffffff16021790555050565b600073ffffffffffffffffffffffffffffffffffffffff168173ffffffffffffffffffffffffffffffffffffffff1614156117a857600080fd5b8073ffffffffffffffffffffffffffffffffffffffff166000809054906101000a900473ffffffffffffffffffffffffffffffffffffffff1673ffffffffffffffffffffffffffffffffffffffff167f8be0079c531659141344cd1fd0a4f28419497f9722a3daafe3b4186f6b6457e060405160405180910390a3806000806101000a81548173ffffffffffffffffffffffffffffffffffffffff021916908373ffffffffffffffffffffffffffffffffffffffff16021790555050565b6000428260020160049054906101000a900463ffffffff1663ffffffff1611159050919050565b60008082840190508381101561189f57fe5b8091505092915050565b828054600181600116156101000203166002900490600052602060002090601f016020900481019282601f106118ea57803560ff1916838001178555611918565b82800160010185558215611918579182015b828111156119175782358255916020019190600101906118fc565b5b50905061192591906119a9565b5090565b828054600181600116156101000203166002900490600052602060002090601f016020900481019282601f1061196a57805160ff1916838001178555611998565b82800160010185558215611998579182015b8281111561199757825182559160200191906001019061197c565b5b5090506119a591906119a9565b5090565b6119cb91905b808211156119c75760008160009055506001016119af565b5090565b9056fea265627a7a723158205ed0155dca5acca67a2b5d32e373dbe4db8d4b11d9cf517c36392724b7afe07164736f6c63430005100032",
  "source": "pragma solidity ^0.5.0;\n\nimport \"./zombiehelper.sol\";\n\ncontract ZombieAttack is ZombieHelper {\n  uint randNonce = 0;\n  uint attackVictoryProbability = 70;\n\n  function randMod(uint _modulus) internal returns(uint) {\n    randNonce = randNonce.add(1);\n    return uint(keccak256(abi.encodePacked(now, msg.sender, randNonce))) % _modulus;\n  }\n\n  function attack(uint _zombieId, uint _targetId) external onlyOwnerOf(_zombieId) {\n    Zombie storage myZombie = zombies[_zombieId];\n    Zombie storage enemyZombie = zombies[_targetId];\n    uint rand = randMod(100);\n    if (rand <= attackVictoryProbability) {\n      myZombie.winCount = myZombie.winCount.add(1);\n      myZombie.level = myZombie.level.add(1);\n      enemyZombie.lossCount = enemyZombie.lossCount.add(1);\n      feedAndMultiply(_zombieId, enemyZombie.dna, \"zombie\");\n    } else {\n      myZombie.lossCount = myZombie.lossCount.add(1);\n      enemyZombie.winCount = enemyZombie.winCount.add(1);\n      _triggerCooldown(myZombie);\n    }\n  }\n}",
  "sourcePath": "/usr/src/app/contracts/zombieattack.sol",
  "compiler": {
    "name": "solc",
    "version": "0.5.16+commit.9c3226ce.Emscripten.clang"
  },
  "schemaVersion": "3.0.23",
  "updatedAt": "2020-04-12T14:01:19.767Z",
  "networkType": "ethereum",
  "devdoc": {
    "methods": {
      "transferOwnership(address)": {
        "details": "Allows the current owner to transfer control of the contract to a newOwner.",
        "params": {
          "_newOwner": "The address to transfer ownership to."
        }
      }
    }
  },
  "userdoc": {
    "methods": {}
  }
}